:020000040800F2
:10000000000400207D020008690200086B0200085D
:100010006D0200086F020008710200080000000075
:100020000000000000000000000000007302000853
:10003000750200080000000077020008790200083D
:10004000BD020008C1020008C5020008C90200087C
:10005000CD020008D1020008D5020008D90200082C
:10006000DD020008E1020008E5020008E9020008DC
:10007000ED020008F1020008F5020008F90200088C
:10008000FD02000801030008050300080903000839
:100090000D030008110300081503000819030008E8
:1000A0001D03000821030008250300082903000898
:1000B0002D03000831030008350300083903000848
:1000C0003D030008410300084503000849030008F8
:1000D0004D030008510300085503000859030008A8
:1000E0005D030008610300086503000880B53E4910
:1000F000086850F0010008603C4A13683C4803401F
:1001000013600B683B4803400B60086830F48020A4
:100110000860106830F4FE0010605FF41F0036497C
:10012000086000F005F85FF000603449086001BD28
:1001300080B500F001F801BD82B0002001900020E0
:1001400000902949086850F480300860086810F46D
:10015000003000900198401C01900098002803D1C5
:100160000198B0F5A06FF1D10868800302D5012095
:10017000009001E0002000900098012831D1204833
:10018000026852F010020260026892089200026057
:10019000026852F0020202601448026802600268BB
:1001A0000260026852F480620260026832F47C12DB
:1001B0000260026852F4E81202600A6852F080722B
:1001C0000A600A689201FCD501688908890001600B
:1001D000016851F002010160016811F00C01082969
:1001E000FAD102B070470000001002400410024033
:1001F0000000FFF8FFFFF6FE0810024008ED00E0E7
:100200000020024000F00DF8002801D0AFF300807C
:10021000AFF300800020AFF3008000F005F800F09D
:100220000DF801207047000080B50021024800F061
:1002300007F8002002BD00BF0008014000F004B82C
:1002400089B20161704700000746384600F002F8A5
:10025000FBE7000080B5AFF30080024A11001820D0
:10026000ABBEFBE7260002007047FEE7FEE7FEE7B5
:10027000FEE77047704770477047000001488047AD
:1002800001480047ED0000088D020008AFF3008030
:10029000AFF30080FFF7B6FFFFF7E6BFFFF7E5BF5C
:1002A000FFF7E4BFFFF7E3BFFFF7E2BFFFF7E1BFF0
:1002B000FFF7E0BFFFF7DFBFFFF7DEBFFFF7FEBFCF
:1002C000FFF7FEBFFFF7FEBFFFF7FEBFFFF7FEBF62
:1002D000FFF7FEBFFFF7FEBFFFF7FEBFFFF7FEBF52
:1002E000FFF7FEBFFFF7FEBFFFF7FEBFFFF7FEBF42
:1002F000FFF7FEBFFFF7FEBFFFF7FEBFFFF7FEBF32
:10030000FFF7FEBFFFF7FEBFFFF7FEBFFFF7FEBF21
:10031000FFF7FEBFFFF7FEBFFFF7FEBFFFF7FEBF11
:10032000FFF7FEBFFFF7FEBFFFF7FEBFFFF7FEBF01
:10033000FFF7FEBFFFF7FEBFFFF7FEBFFFF7FEBFF1
:10034000FFF7FEBFFFF7FEBFFFF7FEBFFFF7FEBFE1
:10035000FFF7FEBFFFF7FEBFFFF7FEBFFFF7FEBFD1
:08036000FFF7FEBFFFF7FEBF2F
:040000050800028D60
:00000001FF
