:020000040800F2
:10000000B8040020F11A0008251A0008271A000871
:10001000291A00082B1A00082D1A000800000000F9
:100020000000000000000000000000002F1A00087F
:10003000311A000800000000331A0008351A0008C1
:100040001D1B0008211B0008251B0008291B000898
:100050002D1B0008311B0008351B0008391B000848
:100060003D1B0008411B0008451B0008491B0008F8
:100070004D1B0008511B0008551B0008591B0008A8
:100080005D1B0008611B0008651B0008691B000858
:100090006D1B0008711B0008751B0008791B000808
:1000A0007D1B0008811B0008851B0008891B0008B8
:1000B000431A00088D1B0008911B0008951B0008BF
:1000C000991B00089D1B0008A11B0008A51B000828
:1000D000A91B0008AD1B0008B11B0008B51B0008D8
:1000E000B91B0008BD1B0008C11B00082DE9F8431F
:1000F0000646DFF884543078C10748D5686800F0B8
:100100000C00042807D0686800F00C0008280BD108
:100110006868C10308D52868810338D5706800284D
:1001200040F0BE80012067E17068B0F5803F04D1E7
:10013000286840F48030286014E008B928680AE094
:10014000B0F5A02F286806D140F4802028602968E7
:1001500041F4803105E020F480302860296821F4E2
:1001600080212960706868B100F040FA0446286870
:10017000810300F1958000F039FA001B6528F6D361
:10018000032039E100F032FA04462868810340F187
:10019000878000F02BFA001B6528F6D3F0E700F00B
:1001A00025FA001B022840F2AA80E9E7306970B105
:1001B0000121396000F01AFA04462868810700F12D
:1001C000DC8000F013FA001B0228F6D9D8E738606B
:1001D00000F00CFA04462968880765D500F006FA95
:1001E000001B0228F7D9CBE7086000F0FFF90446AE
:1001F000686A810777D500F0F9F9001B0228F7D962
:10020000BEE708B9286A09E00528286A06D140F047
:1002100004002862286A40F0010005E04008400020
:100220002862286A20F00400286241F28938F068C8
:1002300068B100F0DBF98146286A810700F1AA80E5
:1002400000F0D4F9A0EB09004045F5D398E700F0A1
:10025000CDF98146286A810740F19C8000F0C6F9FB
:10026000A0EB09004045F5D38AE700F0BFF9001B79
:10027000022840F2A28083E700F0B8F9001B0228B0
:1002800040F2B5807CE700F0B9F8044628688101A7
:1002900040F1B18000F0AAF9001B0228F6D96FE7FF
:1002A0003078DFF8E07281071BD5686810F00C0F1A
:1002B00009D0686800F00C0008287FF477AF686800
:1002C000C1033FF573AF2868810703D53069012862
:1002D0007FF428AF2968706921F0F80141EAC00174
:1002E0002960317808071DD5B069DFF89C12002815
:1002F0003FF47AAF01220A6000F078F90446686A98
:1003000081077FF54CAFDFF874020268D2084FF422
:100310007A71B2FBF1F1009100BF0098411E0028F4
:100320000091F9D13078410739D5E8690024C1003E
:1003300009D4E86940F08050E8610124E86900F0E0
:10034000805000900098DFF84482D8F80000C10582
:100350001BD4D8F8000040F48070C8F8000000F00A
:1003600045F98146D8F80000C1050ED400F03EF9E9
:10037000A0EB09006528F5D302E72868716920F031
:10038000F80040EAC1002860ABE7F06801287FF47C
:1003900038AF3FE71CB1E86920F08050E861F069B0
:1003A00048B3696801F00C0108293FF4BBAE02288C
:1003B0007FF469AF00F022F80446286881013FF518
:1003C00054AF306AB0F5803F05D16968B06821F458
:1003D0000031014369606A68306A716A22F47412FC
:1003E00002430A436A60012000F009F804462868C5
:1003F00081017FF541AF0020BDE8F283002038661F
:1004000000F0F4B82DE9F843614F05463868894695
:1004100000F00700484502D200F086F878D128683D
:10042000554C810712D5400703D5616841F4E0615E
:1004300061602878010703D5606840F4605060600F
:100440006168A86821F0F001014361602978C8075C
:1004500056D56868012802D121688A0303E0022882
:10046000216802D18A0102D452E08A0750D561681E
:10047000890840EA8100606041F2893800F0B6F8EE
:100480000646686801280BD1606800F00C0004285B
:1004900036D000F0ABF8801B4045F5D303202DE0AB
:1004A000022837D1606800F00C00082828D000F03E
:1004B0009DF8801B4045F5D3F0E72878410705D526
:1004C0006268E86822F4E062024362602978080703
:1004D00006D56168286921F4605141EAC001616074
:1004E00000F02CF862682B49244BC2F30312895C9C
:1004F000C8401860022000F07FF80020BDE8F283B9
:10050000386800F007008145D7D200F00DF8D4D04C
:100510000120F3E7606810F00C0FF1D000F066F8EE
:10052000801B4045F6D3B9E73968C90849EAC101DB
:100530003960386800F00700484570471649104890
:100540000A6802F00C03082B00D0704710B500BFFA
:1005500013A4C2F38343D203E35C08D5096858436C
:1005600013A3C1F340415A5CB0FBF2F010BD184632
:100570000A49484310BD0000001002400C00002052
:1005800000127A00000042428004424200700040A3
:1005900000200240AC1900080410024000093D0090
:1005A00002030405060708090A0B0C0D0E0F1010B4
:1005B000010230B4002513E050F8042BD30744BFE8
:1005C000A9F101039A18091F042942F8045BFAD221
:1005D00013468C0744BF15809B1CC90748BF1D707C
:1005E00050F8041B0029E7D130BC7047014840682F
:1005F000704700BF0000002038B50D4D0D4B2A7824
:1006000004464FF47A711868B1FBF2F2B0FBF2F0D5
:1006100000F053F850B9102C08D2002221464FF0B8
:10062000FF3000F023F8AC60002032BD012032BD65
:10063000000000200C0000200901020006D5294A14
:1006400000F00F00104400F8041C7047264B1954AA
:100650007047264B19684FF6FF020002114000F464
:10066000E0600843224908431860704738B51F4BC3
:100670001C68C4F30223C3F10704052C28BF04241B
:100680001D1D072D34BF0023DB1E012505FA04F4D0
:10069000641E2140994005FA03F35B1E1A40114382
:1006A000BDE83440C8E7012200F01F01114BFFE70D
:1006B0008A40400943F82020704710B5401EB0F131
:1006C000807F01D3012010BD0B4C60600F214FF0E3
:1006D000FF30FFF7B1FF0021A1600720206000205C
:1006E00010BD000018ED00E000E400E00CED00E0BB
:1006F0000000FA0500E100E010E000E000F04AB878
:1007000031B500981F4C204D0521B0FBF1F121605F
:100710006FF001022B681A61284600F061F8284644
:1007200000F047F820680128FCDA284600F04AF873
:100730002846BDE8324000F05EB838B5134C20883A
:100740007D2810DB002222804FF40051104D2846F6
:1007500000F0C1FA002814BF002201224FF400511A
:10076000284600F0BEFA2088401C208031BD064992
:1007700000680A68904203D102480168491E01607E
:1007800070470000B000002068000020B400002086
:1007900000100140D1E7000038B5040001D101206C
:1007A00032BD00F055F818B900F04EF800F0EBFA41
:1007B00040E0022180F83D1001680A6842F0010221
:1007C0000A6032E0022180F83D1041F21113016805
:1007D0000A6A1A4202BF0A6A40F244431A421FE000
:1007E0000068C16841F00101C160026842F0010285
:1007F0000260002070470068C16849084900C16074
:1008000041F21112016A114202BF016A40F24442F0
:10081000114203D101684908490001600020704776
:1008200003D10A68520852000A60012180F83D1085
:100830000020704702206870211D206800F01BF91D
:1008400001206870002032BD0021297020467047C9
:1008500004F13C056878704710B5044620680169CA
:100860008A0715D5C1688A0712D56FF002010161A8
:1008700001222277806910F0030F204602D000F099
:10088000A5FA03E000F0A3FA00F087F80020207733
:10089000206801694A0715D5C1684A0712D56FF06B
:1008A0000401016102222277806910F4407F204612
:1008B00002D000F08BFA03E000F089FA00F06DF846
:1008C00000202077206801690A0715D5C1680A074A
:1008D00012D56FF00801016104222277C06910F07F
:1008E000030F204602D000F071FA03E000F06FFA27
:1008F00000F053F80020207720680169CA0615D55A
:10090000C168CA0612D56FF0100101610822227772
:10091000C06910F4407F204602D000F057FA03E08F
:1009200000F055FA00F039F80020207720680169BE
:10093000CA0708D5C168CA0705D56FF00101016172
:100940002046FFF714FF206801690A0608D5C16830
:100950000A0605D56FF080010161204600F038FAE3
:10096000206801694A0608D5C1684A0605D56FF0B6
:1009700040010161204600F02CFA206801698A06D6
:100980000AD5C1688A0607D56FF0200101612046AB
:10099000BDE8104000F01EBA10BD204600F01BBAA2
:1009A00038B500F05CF801D1022032BD0120207082
:1009B00002226270DFF81C012A689368034093608A
:1009C0000A68002A37D0102A37D0202A37D0302A98
:1009D00037D0402A2BD0502A1ED0602A20D0702A2F
:1009E0000BD0B2F5805F03D0B2F5005F0CD02CE0E5
:1009F00028688168C908C9000CE000F02BF8286855
:100A0000816841F0770105E000F024F828688168EA
:100A100041F48041816018E000F018F8502111E0A5
:100A2000CA684968286800F06EF860210AE000F0A2
:100A30000DF8402106E0002104E0102102E0202111
:100A400000E03021286800F070F80EE0CA684968BC
:100A5000286849E0CB684A68896828686DE00546DF
:100A600005F13C04207801287047012060700021C6
:100A70002170002032BD70B5174E0368174C184D19
:100A8000B04218BFB0F1804F03D0A84218BFA042B7
:100A900009D14A6823F070031343B0421CBFB0F180
:100AA000804FA84201D0A04203D1CA6823F440730A
:100AB00013434A6923F0800313430360B0428B68F9
:100AC000C3620A68826202D10969064A1160012381
:100AD000436170BD8800FFFF002C0140000800400A
:100AE00000040040302C014010B5036A046A640819
:100AF0006400046223F00A03846924F0F00444EAE9
:100B00000214846123E010B5036A23F0100303622A
:100B10008369046A23F4704343EA023324F0A00497
:100B2000836144EA0114046210BD826822F07002FD
:100B3000114341F007018160704710B5846824F4C7
:100B40007F442143114341EA0321816010BD1943D1
:100B5000016210BD2DE9F843024600200025634BD9
:100B6000DFF88C9101270E68AF403E40BE4240F056
:100B7000AC804C686CB3012C20D0022C23D0032C09
:100B800032D0112C1CD0122C20D0DFF868E1744533
:100B90001CBFDFF864E174451BD0DFF860E17445E9
:100BA0001CBFDFF85CE1744513D0DFF858E17445F1
:100BB0001CBFDFF854E174450BD016E0C86814E0A0
:100BC000C868001D11E0C86808300EE0C8680C3025
:100BD0000BE0886808B9042007E0012819BF082045
:100BE00057610820176100E00020B6F5807F03D22E
:100BF00094464FEA850E05E0A5F1080402F1040CC5
:100C00004FEA840E0F27DCF8008007FA0EF428EA7A
:100C1000040400FA0EFE4EEA0404CCF800404C68CE
:100C2000E40052D5D9F80040DFF8E0E044F00104D8
:100C3000C9F800404FEA950CD9F8004004F00104CF
:100C400000944FEA8508009C5EF82C4008F00C08E0
:100C500007FA08F724EA07072D4CA24208BF002430
:100C60000ED02C4CA24208BF012409D02A4CA2422B
:100C700008BF022404D0294CA2420CBF0324042440
:100C800004FA08F427434EF82C70F7434C68E40349
:100C90001C684CBF34433C401C604C68A4035C6837
:100CA0004CBF34433C405C604C68E4029C684CBFE1
:100CB00034433C409C604C68A40203D5DF683E434B
:100CC000DE6002E0DE683740DF606D1C0F2D7FF6CE
:100CD00049AFBDE8F1838068084018BF0120C0B269
:100CE000704702B909040161704700000004014027
:100CF0001810024000001110000012100000211016
:100D000000002210000031100000321008000140E5
:100D100000080140000C0140001001400014014097
:100D2000D0B586B002A8102100F056F825A44FF0E7
:100D30008040D4E90067214C20600420CDE90067A1
:100D400046210022E0606160A2602261A26120462B
:100D5000FFF722FD08B100F0A3F84FF48050029095
:100D600002A92046FFF71CFE08B100F099F8002107
:100D7000009101912046694600F094F808B100F016
:100D80008FF806B0D0BD0068B0F1804F00D070473A
:100D900080B50B48016841F0010101600022006844
:100DA00000F001000090012100981C20FFF75EFC7C
:100DB000BDE802401C20FFF776BC00006800002060
:100DC0001C10024000000000000000007047704747
:100DD0007047704770477047002200F089B80000E4
:100DE00038B500F09FF800F030F800F0ADF8FFF7EC
:100DF00097FF00F021F900F071F900F0CCF90E4CEA
:100E00000E4D002200F01CF800F0F6FA012802D185
:100E1000012200F015F8237801220221002000F0C1
:100E20004BFAA37801220221022000F045FA4FF488
:100E30007A7000F01FFBE4E7A8000020000C0140DE
:100E40004FF400412846FFF74CBF00B58FB005A80E
:100E50002821FFF7C1FF68461421FFF7BDFF4FF4BB
:100E600080310022069107920D9101200590099092
:100E700002224FF4E0110C920E9105A8FFF736F90B
:100E8000022101910F204FF4806100900022039114
:100E90000292049202216846FFF7B4FA0FB000BD37
:100EA0007047000030B500F13C031A78012A01D1E7
:100EB000022030BD01221A7002245C70026854685E
:100EC00024F070045460046865680A68154365601E
:100ED0000268946824F0800494600268946848680A
:100EE00004439460012159700020187030BD000047
:100EF00000B500BF130096469446103928BFA0E8FD
:100F00000C50FAD85FEA417C28BF0CC048BF40F8BB
:100F1000042BC90728BF20F8022B48BF00F8012B7B
:100F200000BD000080B50748016841F01001016074
:100F30000320FFF78EFB0220FFF75EFB00F0AEFA06
:100F4000002002BD00200240F0B585B068461021A7
:100F5000FFF742FF2F48304F0468304D304E44F0C9
:100F60001004046048F23C44016801F0100104914F
:100F70000499026842F020020260036803F0200333
:100F800004930499026842F004020260036803F0CB
:100F9000040304930499026842F0080202600122EB
:100FA000006800F0080004904FF40051049838469F
:100FB000FFF797FE012221462846FFF792FE012205
:100FC0004FF4C0513046FFF78CFE4FF4005100F053
:100FD00029F83846FFF7BEFD10200021009001914E
:100FE000029130466946FFF7B5FD012003210190CB
:100FF000002203910292009469462846FFF7AAFD59
:101000004FF4C05100F00EF83046FFF7A3FD05B0D5
:10101000F0BD00001810024000100140000C01401B
:101020000008014000910122019200210291032257
:10103000039269467047000080B524482449016046
:101040004FF482720121426041610222302102612B
:10105000C16100234FF400720A218360C360826182
:10106000036243628362C16200F03AFA18B1BDE8DC
:101070000140FFF715BF01BD30B585B0044601A89A
:101080001021FFF7A9FE2468114DAC421CD1114874
:10109000016841F480510160026802F480520092BC
:1010A0000099026842F004020260A021006800F08A
:1010B0000400009002220098074801910292032147
:1010C000049101A9FFF746FD05B030BD10000020D6
:1010D00000300140181002400008014038B50E4CA5
:1010E00000224FF400412046FFF7FBFD0B4D00228C
:1010F0004FF400612846FFF7F4FD00224FF48051C1
:101100002846FFF7EEFD2046BDE8384000224FF4A8
:101110008061FFF7E6BD00BF000C01400008014000
:1011200010B50A2000F0A6F9DFF80042002200F016
:101130000BF8022000F09EF9012200F005F8BDE84E
:101140001040642000F096B908212046FFF7C9BD81
:101150001CB500F018F8012203E01CB500F013F8EC
:1011600000221021FFF7F1FF00222021FFF7EDFF01
:101170000A23012269466E4800F0F2F9012220217B
:10118000FFF7E3FF13BD8DF800000122674C20211B
:101190002046FFF7A6BD80B5FFF7C2FFE220FFF7AC
:1011A000DCFFA220FFF7D9FFA020FFF7D6FFC82061
:1011B000FFF7D3FFA420FFF7D0FFA620FFF7CDFF56
:1011C0002520FFF7CAFF8120FFF7C7FF1A20FFF78E
:1011D000C4FF2F20FFF7C1FF4020FFF7BEFFBDE88F
:1011E0000240AF20B9E770B550380C461546C0B282
:1011F000FFF7B3FF002600F0A3F800F00DF8294632
:1012000006224C4851434218F3B200F028F8641CFF
:10121000F0B20628EFDB70BD04F00F009DE72DE96A
:10122000F843044688469146002700F01EF84546DC
:101230000026280600F085F800F014F83E48F3B2C6
:1012400000EB091203EBC70300F009F86D1CF0B2C4
:101250000828EEDB7F1C022FE7DBBDE8F183761C5C
:10126000D05C75E705F00F0077E738195038C0B249
:1012700073E72DE9F8430446884691460027FFF7B7
:10128000F4FF45460026280600F05BF8FFF7EAFF6A
:1012900049461E222948514342180A23F0B203FB53
:1012A0000703FFF7DCFF6D1CF0B20A28EBDB7F1CA5
:1012B000032FE4DBBDE8F1832DE9FC410F468046B6
:1012C000154600240A210A2093FBF0F001FB10339D
:1012D0000DF80430641C83B2002B24B2F3D1002635
:1012E0000CE000F01EF8FFF7C4FF0A3704E000F03E
:1012F00018F8FFF794FF0837761CF6B2A6420EDA0C
:10130000601E801B012D04D0F6D3032DE9D0EED34F
:10131000F2E700F006F8FFF766FFBF1DECE7BDE857
:10132000F3811DF80020F9B240467047000C0140DF
:1013300010000020BC190008C0180008941700080D
:101340002006000F40F0100007E70000F8B510215C
:1013500000910322002101910291039206E0F8B569
:1013600010200321009003910122019269463A481E
:10137000FFF7F0FB05B000BD10B5FFF7F0FF364CEE
:10138000002210212046FFF7ACFC44F63820FFF77E
:10139000B7F9012210212046FFF7A3FC1E20FFF71A
:1013A000AFF9FFF7D3FFBDE810400520FFF7A8B95C
:1013B00010B5294C00F011F80028FBD03220FFF7BF
:1013C0009FF900F00AF8012805D100F006F801287D
:1013D000FBD0012010BD002010BD10212046FFF7DA
:1013E0007ABC38B500250824FFF7E2FF641E40EA06
:1013F0004505F9D1E8B232BDF8B5FFF7BDFF164D8E
:1014000000F033F8002408BB00F02FF80028FBD0D0
:1014100000F02BF80128FBD00026104FFFF7E1FF6A
:10142000B8550419761C042EF8DBFFF7DAFF387183
:1014300000F01BF80028FBD0FFF791FF00F010F838
:101440003879E4B2844201D10120F2BDFFF787FF71
:1014500000F006F80020F2BD00080140A8000020BE
:10146000012210212846FFF73CBC10212846FFF737
:1014700032BC000038B50446FFF7B8F814F1010F8C
:10148000054602D0044908780419FFF7AFF8401B5D
:10149000A042FAD331BD00BF000000200E4881B049
:1014A000016841F001010160026802F0010200924E
:1014B0000099426842F080524260406800F08050DB
:1014C000009000980548016821F0E06141F000714A
:1014D000016001B0704700BF1810024004000140D5
:1014E00010B5040001D1012010BD0021A16294F8C3
:1014F000510010B92046FFF7BFFD022084F85100CB
:101500002068016821F0400101606268A168E0681C
:1015100023680A432169024360690A43A1690243BF
:1015200001F40071E0690A43216A0243A06A0A4398
:1015300002431A60A169606A2268090C01F0040183
:10154000014351602168E06A08612068C16921F4A3
:101550000061C16100206065012184F8511010BD57
:101560002DE9F843044604F150060027307801289D
:101570000D469146984608BF022000F09980012050
:101580003070FFF733F87178012918BF022740F057
:101590008A80290018BFB9F1000F00F08380032270
:1015A000727077602163A4F83490A4F83690A76332
:1015B000A787E78767642764A368B3F5004F04D162
:1015C0002268136843F480431360226813685D0641
:1015D00003D4136843F040031360E268B2F5006F70
:1015E000626827D1002A1CBFE28E012A06D1226838
:1015F00031F8023BD360E38E5A1EE28689460546E7
:1016000005E039F8021BC160E08E411EE186E08EE4
:1016100000284FD0206881688A07F2D4B8F1000F03
:1016200051D018F1010FF2D0FEF7E0FF401B40450A
:10163000EDD348E0002A1CBFE28E012A06D12268C1
:1016400011F8013B1373E38E5A1EE2868946054664
:1016500005E019F8011B0173E08E411EE186E08E62
:1016600040B3206881688A07F3D4B8F1000F2AD00C
:1016700018F1010FF3D0FEF7B9FF401B4045EED340
:1016800021E02A464146204600F06AF818B12020A1
:101690000127706007E0A06810B9009700F072F8A9
:1016A000706800B101270120707000213170384648
:1016B000BDE8F2830095434601220221204600F056
:1016C00009F80028DDD00327EDE7016821F040018B
:1016D000016070472DE9F041069F05460E46904691
:1016E0001C46286881683140B1420CBF01200020AF
:1016F000404532D014F1010FF3D024B1FEF776FF4C
:10170000C01BA042EDD32868416821F0E001416090
:101710006868B0F5827F09D1A868B0F5004F18BF9E
:10172000B0F5806F02D12868FFF7CFFFA86AB0F547
:10173000005F0AD129680A684DF6FF7002400A600E
:101740002868016841F40051016005F15000012151
:10175000417000220270032000E00020BDE8F0810B
:101760001CB500920B46044600228021FFF7B2FF11
:1017700010B100F002F8032016BD606D40F02000AB
:10178000606570472168CA68009289680091009A74
:101790007047000080E0F078181878F0E0001F7FB4
:1017A000FFE08080E0FF7F000000000101010100F8
:1017B000000000101010F8F8000000000000000009
:1017C000FFFF800000000001010101010101010093
:1017D00000F0F898080838F8F00000C0E070381CF5
:1017E00007C3C100010101010101010101000070F5
:1017F00078580818F8F0E00040E0E0E20207CFFD7A
:10180000FC0000000101010101010000000000C016
:10181000E0F8F8F80000181C171311FFFFFF100084
:101820000000000101010101010000F8F8080808AA
:101830000808080040E3E7A30101C7FFFE0000001D
:10184000010101010101000080E0F078180838383A
:1018500030003FFFFFC7830183FFFE00000001014E
:10186000010101010000003838080888E8F8180074
:10187000000000F0FEFF0300000000000001010175
:101880000000000040F0F898080818F8F00070FD1B
:10189000FD8707068FFDF90000000101010101012C
:1018A0000000E0F0F818080878F0E08003C7CFCC1B
:1018B000088CFEFF7F07000001010101010000000C
:1018C00000E010080810E0000007081010080700EA
:1018D000001010F8000000000010101F1010000091
:1018E0000030080808887000001814121110180041
:1018F0000030088888483000000C101010110E00CD
:101900000000804030F8000000030212121F120293
:1019100000F8484848488800000C101010100F00CC
:1019200000E09048485080000007081010100F0099
:1019300000180808C82818000000001E0100000058
:101940000070888888887000000E111010110E0039
:1019500000F008080890E0000000091111080700D5
:1019600010B50E4A0E49106840F00100106053682F
:101970000C480B405360146804401460116821F453
:10198000802111604FF41F01506820F4FE00506068
:1019900091604FF00060044A106010BD00100240DA
:1019A0000000FFF8FFFFF6FE08ED00E00000000079
:1019B000000000000102030406070809007E81817F
:1019C0007E00000082FF800000C2A1918986004253
:1019D0008189897600181412FF1000C789898971DE
:1019E000007E898989720001C1310D0300768989E1
:1019F0008976000E9191917E30B450F8041B79B134
:101A00000268436802440830DC0744BFA9F10104BE
:101A1000E31852F8045B43F8045B091FF9D1ECE7C3
:101A200030BC70477047FEE7FEE7FEE7FEE7704711
:101A30007047704780B500F009F8BDE80140FEF737
:101A40005DBE0148FEF708BF6800002002494A68F1
:101A5000087882184A6070470000002010B50749D6
:101A600079441831064C7C44163404E00A68081D99
:101A7000114488470146A142F8D110BD080000007A
:101A8000280000002FEBFFFFA8000000100000203E
:101A90000000000065FFFFFF100000006400000070
:101AA000000000200000000000F00DF8002801D028
:101AB000FFF7D4FFAFF300800020AFF30080FFF703
:101AC0008FF900F002F80120704700F001B8000023
:101AD0000746384600F002F8FBE7000080B5AFF398
:101AE0000080024A11001820ABBEFBE7260002006E
:101AF000014880470148004761190008111B000890
:101B000001000000000000001000000000A24A04D4
:101B1000AFF30080AFF30080FFF7C6FFFFF7FEBF13
:101B2000FFF7FEBFFFF7FEBFFFF7FEBFFFF7FEBFE9
:101B3000FFF7FEBFFFF7FEBFFFF7FEBFFFF7FEBFD9
:101B4000FFF7FEBFFFF7FEBFFFF7FEBFFFF7FEBFC9
:101B5000FFF7FEBFFFF7FEBFFFF7FEBFFFF7FEBFB9
:101B6000FFF7FEBFFFF7FEBFFFF7FEBFFFF7FEBFA9
:101B7000FFF7FEBFFFF7FEBFFFF7FEBFFFF7FEBF99
:101B8000FFF7FEBFFFF7FEBFFFF7FEBFFFF7FEBF89
:101B9000FFF7FEBFFFF7FEBFFFF7FEBFFFF7FEBF79
:101BA000FFF7FEBFFFF7FEBFFFF7FEBFFFF7FEBF69
:101BB000FFF7FEBFFFF7FEBFFFF7FEBFFFF7FEBF59
:041BC000FFF7FEBF6E
:0400000508001B11C3
:00000001FF
