:020000040800F2
:10000000680400202D130008091300080B130008D2
:100010000D1300080F130008111300080000000062
:1000200000000000000000000000000013130008A2
:10003000151300080000000017130008191300082A
:10004000591300085D1300086113000865130008C8
:10005000691300086D130008711300087513000878
:10006000791300087D130008811300088513000828
:10007000891300088D1300089113000895130008D8
:10008000991300089D130008A1130008A513000888
:10009000A9130008AD130008B1130008B513000838
:1000A000B9130008BD130008C1130008C5130008E8
:1000B000C9130008CD130008D1130008D513000898
:1000C000D9130008DD130008E1130008E513000848
:1000D000E9130008ED130008F1130008F5130008F8
:1000E000F9130008FD130008011400082DE9F84376
:1000F0000646DFF884543078C10748D5686800F0B8
:100100000C00042807D0686800F00C0008280BD108
:100110006868C10308D52868810338D5706800284D
:1001200040F0BE80012067E17068B0F5803F04D1E7
:10013000286840F48030286014E008B928680AE094
:10014000B0F5A02F286806D140F4802028602968E7
:1001500041F4803105E020F480302860296821F4E2
:1001600080212960706868B100F040FA0446286870
:10017000810300F1958000F039FA001B6528F6D361
:10018000032039E100F032FA04462868810340F187
:10019000878000F02BFA001B6528F6D3F0E700F00B
:1001A00025FA001B022840F2AA80E9E7306970B105
:1001B0000121396000F01AFA04462868810700F12D
:1001C000DC8000F013FA001B0228F6D9D8E738606B
:1001D00000F00CFA04462968880765D500F006FA95
:1001E000001B0228F7D9CBE7086000F0FFF90446AE
:1001F000686A810777D500F0F9F9001B0228F7D962
:10020000BEE708B9286A09E00528286A06D140F047
:1002100004002862286A40F0010005E04008400020
:100220002862286A20F00400286241F28938F068C8
:1002300068B100F0DBF98146286A810700F1AA80E5
:1002400000F0D4F9A0EB09004045F5D398E700F0A1
:10025000CDF98146286A810740F19C8000F0C6F9FB
:10026000A0EB09004045F5D38AE700F0BFF9001B79
:10027000022840F2A28083E700F0B8F9001B0228B0
:1002800040F2B5807CE700F0B9F8044628688101A7
:1002900040F1B18000F0AAF9001B0228F6D96FE7FF
:1002A0003078DFF8E07281071BD5686810F00C0F1A
:1002B00009D0686800F00C0008287FF477AF686800
:1002C000C1033FF573AF2868810703D53069012862
:1002D0007FF428AF2968706921F0F80141EAC00174
:1002E0002960317808071DD5B069DFF89C12002815
:1002F0003FF47AAF01220A6000F078F90446686A98
:1003000081077FF54CAFDFF874020268D2084FF422
:100310007A71B2FBF1F1009100BF0098411E0028F4
:100320000091F9D13078410739D5E8690024C1003E
:1003300009D4E86940F08050E8610124E86900F0E0
:10034000805000900098DFF84482D8F80000C10582
:100350001BD4D8F8000040F48070C8F8000000F00A
:1003600045F98146D8F80000C1050ED400F03EF9E9
:10037000A0EB09006528F5D302E72868716920F031
:10038000F80040EAC1002860ABE7F06801287FF47C
:1003900038AF3FE71CB1E86920F08050E861F069B0
:1003A00048B3696801F00C0108293FF4BBAE02288C
:1003B0007FF469AF00F022F80446286881013FF518
:1003C00054AF306AB0F5803F05D16968B06821F458
:1003D0000031014369606A68306A716A22F47412FC
:1003E00002430A436A60012000F009F804462868C5
:1003F00081017FF541AF0020BDE8F283002038661F
:1004000000F0F4B82DE9F843614F05463868894695
:1004100000F00700484502D200F086F878D128683D
:10042000554C810712D5400703D5616841F4E0615E
:1004300061602878010703D5606840F4605060600F
:100440006168A86821F0F001014361602978C8075C
:1004500056D56868012802D121688A0303E0022882
:10046000216802D18A0102D452E08A0750D561681E
:10047000890840EA8100606041F2893800F0B6F8EE
:100480000646686801280BD1606800F00C0004285B
:1004900036D000F0ABF8801B4045F5D303202DE0AB
:1004A000022837D1606800F00C00082828D000F03E
:1004B0009DF8801B4045F5D3F0E72878410705D526
:1004C0006268E86822F4E062024362602978080703
:1004D00006D56168286921F4605141EAC001616074
:1004E00000F02CF862682B49244BC2F30312895C9C
:1004F000C8401860002000F07FF80020BDE8F283BB
:10050000386800F007008145D7D200F00DF8D4D04C
:100510000120F3E7606810F00C0FF1D000F066F8EE
:10052000801B4045F6D3B9E73968C90849EAC101DB
:100530003960386800F00700484570471649104890
:100540000A6802F00C03082B00D0704710B500BFFA
:1005500013A4C2F38343D203E35C08D5096858436C
:1005600013A3C1F340415A5CB0FBF2F010BD184632
:100570000A49484310BD0000001002400C00002052
:1005800000127A00000042428004424200700040A3
:1005900000200240FC1100080410024000093D0048
:1005A00002030405060708090A0B0C0D0E0F1010B4
:1005B000010230B4002513E050F8042BD30744BFE8
:1005C000A9F101039A18091F042942F8045BFAD221
:1005D00013468C0744BF15809B1CC90748BF1D707C
:1005E00050F8041B0029E7D130BC7047014840682F
:1005F000704700BF0000002038B50D4D0D4B2A7824
:1006000004464FF47A711868B1FBF2F2B0FBF2F0D5
:1006100000F049F850B9102C08D2002221464FF0C2
:10062000FF3000F023F8AC60002032BD012032BD65
:10063000000000200C0000200901020006D5244A19
:1006400000F00F00104400F8041C7047214B1954AF
:100650007047214B19684FF6FF020002114000F469
:10066000E06008431D4908431860704738B51A4BCD
:100670001C68C4F30223C3F10704052C28BF04241B
:100680001D1D072D34BF0023DB1E012505FA04F4D0
:10069000641E2140994005FA03F35B1E1A40114382
:1006A000BDE83440C8E710B5401EB0F1807F01D3EB
:1006B000012010BD0A4C60600F214FF0FF30FFF7A2
:1006C000BBFF0021A16007202060002010BD0000BA
:1006D00018ED00E000E400E00CED00E00000FA0599
:1006E00010E000E02DE9F843044604F1500600272D
:1006F000307801280D469146984608BF022000F048
:10070000998001203070FFF771FF7178012918BFBF
:10071000022740F08A80290018BFB9F1000F00F0CD
:1007200083800322727077602163A4F83490A4F868
:100730003690A763A787E78767642764A368B3F544
:10074000004F04D12268136843F480431360226889
:1007500013685D0603D4136843F040031360E26836
:10076000B2F5006F626827D1002A1CBFE28E012A11
:1007700006D1226831F8023BD360E38E5A1EE2862E
:100780008946054605E039F8021BC160E08E411E2E
:10079000E186E08E00284FD0206881688A07F2D475
:1007A000B8F1000F51D018F1010FF2D0FFF71EFF82
:1007B000401B4045EDD348E0002A1CBFE28E012AD1
:1007C00006D1226811F8013B1373E38E5A1EE286AC
:1007D0008946054605E019F8011B0173E08E411EAC
:1007E000E186E08E40B3206881688A07F3D4B8F1CF
:1007F000000F2AD018F1010FF3D0FFF7F7FE401BCE
:100800004045EED321E02A464146204600F06AF8F2
:1008100018B120200127706007E0A06810B9009788
:1008200000F072F8706800B101270120707000219B
:1008300031703846BDE8F28300954346012202211B
:10084000204600F009F80028DDD00327EDE7016815
:1008500021F04001016070472DE9F041069F0546F7
:100860000E4690461C46286881683140B1420CBF54
:1008700001200020404532D014F1010FF3D024B103
:10088000FFF7B4FEC01BA042EDD32868416821F0F9
:10089000E00141606868B0F5827F09D1A868B0F5D1
:1008A000004F18BFB0F5806F02D12868FFF7CFFF67
:1008B000A86AB0F5005F0AD129680A684DF6FF7092
:1008C00002400A602868016841F40051016005F1A6
:1008D00050000121417000220270032000E000203E
:1008E000BDE8F0811CB500920B4604460022802131
:1008F000FFF7B2FF10B100F002F8032016BD606DE3
:1009000040F02000606570472168CA6800928968DD
:100910000091009A7047000010B50A2000F012F90B
:10092000DFF80042002200F00BF8022000F00AF984
:10093000012200F005F8BDE81040642000F002B983
:100940000821204600F0D3B91CB500F018F80122A8
:1009500003E01CB500F013F800221021FFF7F1FFAF
:1009600000222021FFF7EDFF0A23012269466E488D
:10097000FFF7B8FE01222021FFF7E3FF13BD8DF83A
:1009800000000122674C2021204600F0B0B980B55C
:10099000FFF7C2FFE220FFF7DCFFA220FFF7D9FF3D
:1009A000A020FFF7D6FFC820FFF7D3FFA420FFF752
:1009B000D0FFA620FFF7CDFF2520FFF7CAFF81203B
:1009C000FFF7C7FF1A20FFF7C4FF2F20FFF7C1FF73
:1009D0004020FFF7BEFFBDE80240AF20B9E770B589
:1009E00050380C461546C0B2FFF7B3FF002600F0A2
:1009F000A3F800F00DF8294606224C48514342184E
:100A0000F3B200F028F8641CF0B20628EFDB70BDEA
:100A100004F00F009DE72DE9F8430446884691460F
:100A2000002700F01EF845460026280600F085F84D
:100A300000F014F83E48F3B200EB091203EBC703D1
:100A400000F009F86D1CF0B20828EEDB7F1C022FC5
:100A5000E7DBBDE8F183761CD05C75E705F00F009D
:100A600077E738195038C0B273E72DE9F8430446E8
:100A7000884691460027FFF7F4FF454600262806E2
:100A800000F05BF8FFF7EAFF49461E222948514370
:100A900042180A23F0B203FB0703FFF7DCFF6D1CCB
:100AA000F0B20A28EBDB7F1C032FE4DBBDE8F18307
:100AB0002DE9FC410F468046154600240A210A20F4
:100AC00093FBF0F001FB10330DF80430641C83B28B
:100AD000002B24B2F3D100260CE000F01EF8FFF743
:100AE000C4FF0A3704E000F018F8FFF794FF083756
:100AF000761CF6B2A6420EDA601E801B012D04D0D1
:100B0000F6D3032DE9D0EED3F2E700F006F8FFF7B5
:100B100066FFBF1DECE7BDE8F3811DF80020F9B2C8
:100B200040467047000C0140100000200C120008E5
:100B3000580E00082C0D00082006000F40F0100091
:100B400007E7000038B50446FFF750FD14F1010F28
:100B5000054602D0044908780419FFF747FD401BF9
:100B6000A042FAD331BD00BF000000202DE9F843B8
:100B7000024600200025604BDFF8809101270E68B7
:100B8000AF403E40BE4240F0AC804C686CB3012C9C
:100B900020D0022C23D0032C32D0112C1CD0122CAC
:100BA00020D0DFF85CE174451CBFDFF858E17445E4
:100BB0001BD0DFF854E174451CBFDFF850E17445E9
:100BC00013D0DFF84CE174451CBFDFF848E17445F1
:100BD0000BD016E0C86814E0C868001D11E0C868B2
:100BE00008300EE0C8680C300BE0886808B90420B3
:100BF00007E0012819BF082057610820176100E0AD
:100C00000020B6F5807F03D294464FEA850E05E0BA
:100C1000A5F1080402F1040C4FEA840E0F27DCF85A
:100C2000008007FA0EF428EA040400FA0EFE4EEAE9
:100C30000404CCF800404C68E40052D5D9F80040D8
:100C4000DFF8D4E044F00104C9F800404FEA950C05
:100C5000D9F8004004F0010400944FEA8508009C94
:100C60005EF82C4008F00C0807FA08F724EA07079A
:100C70002A4CA24208BF00240ED0294CA24208BF31
:100C8000012409D0274CA24208BF022404D0264CDC
:100C9000A2420CBF0324042404FA08F427434EF8AC
:100CA0002C70F7434C68E4031C684CBF34433C4051
:100CB0001C604C68A4035C684CBF34433C405C60DF
:100CC0004C68E4029C684CBF34433C409C604C68D8
:100CD000A40203D5DF683E43DE6002E0DE683740F1
:100CE000DF606D1C0F2D7FF649AFBDE8F18302B9BF
:100CF000090401617047000000040140181002401F
:100D0000000011100000121000002110000022103D
:100D100000003110000032100800014000080140BE
:100D2000000C0140001001400014014080E0F07808
:100D3000181878F0E0001F7FFFE08080E0FF7F0060
:100D40000000000101010100000000101010F8F87F
:100D50000000000000000000FFFF80000000000114
:100D6000010101010101010000F0F898080838F8BC
:100D7000F00000C0E070381C07C3C1000101010190
:100D8000010101010100007078580818F8F0E00036
:100D900040E0E0E20207CFFDFC000000010101019C
:100DA00001010000000000C0E0F8F8F80000181C85
:100DB000171311FFFFFF10000000000101010101E6
:100DC000010000F8F80808080808080040E3E7A355
:100DD0000101C7FFFE000000010101010101000047
:100DE00080E0F0781808383830003FFFFFC78301F3
:100DF00083FFFE0000000101010101010000003835
:100E000038080888E8F81800000000F0FEFF03002A
:100E100000000000000101010000000040F0F8980F
:100E2000080818F8F00070FDFD8707068FFDF9002F
:100E300000000101010101010000E0F0F8180808BC
:100E400078F0E08003C7CFCC088CFEFF7F0700005E
:100E5000010101010100000000E010080810E0009D
:100E60000007081010080700001010F8000000002C
:100E70000010101F101000000030080808887000D3
:100E8000001814121110180000300888884830002B
:100E9000000C101010110E000000804030F800000F
:100EA00000030212121F120200F848484848880046
:100EB000000C101010100F0000E090484850800007
:100EC0000007081010100F0000180808C8281800A4
:100ED0000000001E010000000070888888887000F3
:100EE000000E111010110E0000F008080890E0002C
:100EF000000009111108070080B52348234901604B
:100F00004FF4827228214260C16100234FF40072C5
:100F10000A218360C36003614361826103624362AB
:100F20008362C16200F038F818B1BDE8014000F0FA
:100F3000B1B801BD30B585B0044601A8102100F05C
:100F4000ABF82468114DAC421CD11148016841F442
:100F500080510160026802F4805200920099026898
:100F600042F004020260A021006800F0040000903A
:100F7000022200980748019102920321049101A9DD
:100F8000FFF7F4FD05B030BD100000200030014037
:100F9000181002400008014010B5040001D10120E2
:100FA00010BD0021A16294F8510010B92046FFF74E
:100FB000C1FF022084F851002068016821F040013F
:100FC00001606268A168E06823680A4321690243FE
:100FD00060690A43A169024301F40071E0690A43B0
:100FE000216A0243A06A0A4302431A60A169606A47
:100FF0002268090C01F00401014351602168E06A94
:1010000008612068C16921F40061C1610020606548
:10101000012184F8511010BD80B500F041F800F0B6
:101020000EF800F04FF8FFF767FFFFF7B0FC40F253
:10103000D243012200210020FFF73AFDFEE700B570
:101040008FB005A8282100F027F86846142100F089
:1010500023F84FF480310022069107920D91012070
:101060000590099002224FF4E0110C920E9105A810
:10107000FFF73CF8022101910F204FF480610090AE
:10108000002203910292049202216846FFF7BAF906
:101090000FB000BD70470000002200F04DB8000006
:1010A00080B50748016841F0100101600320FFF797
:1010B000D0FA0020FFF7A0FA00F058F8002002BD97
:1010C0000020024018B585B001A81021FFF7E4FF09
:1010D0001748046844F0200404600168154C01F0CE
:1010E000200100910099026842F004020260036846
:1010F00003F0040300930099026842F008020260C2
:101100000122006800F0080000903C210098204671
:10111000FFF7EDFD3C210191012202920021039194
:101120000322049201A92046FFF720FD06B010BD5E
:1011300018100240000C014000B500BF1300964695
:101140009446103928BFA0E80C50FAD85FEA417CD9
:1011500028BF0CC048BF40F8042BC90728BF20F89F
:10116000022B48BF00F8012B00BD00000E4881B0E3
:10117000016841F001010160026802F00102009281
:101180000099426842F080524260406800F080500E
:10119000009000980548016821F0E06141F080610D
:1011A000016001B0704700BF181002400400014008
:1011B00010B50E4A0E49106840F0010010605368E7
:1011C0000C480B405360146804401460116821F40B
:1011D000802111604FF41F01506820F4FE00506020
:1011E00091604FF00060044A106010BD0010024092
:1011F0000000FFF8FFFFF6FE08ED00E00000000031
:10120000000000000102030406070809007E818136
:101210007E00000082FF800000C2A191898600420A
:101220008189897600181412FF1000C78989897195
:10123000007E898989720001C1310D030076898998
:101240008976000E9191917E30B450F8041B79B1EB
:101250000268436802440830DC0744BFA9F1010476
:10126000E31852F8045B43F8045B091FF9D1ECE77B
:1012700030BC704710B5074979441831064C7C449E
:10128000163404E00A68081D114488470146A1424B
:10129000F8D110BD080000002800000017F3FFFF80
:1012A0005800000010000020000000009DFFFFFF1C
:1012B0001000000088000000000000200000000076
:1012C00000F00DF8002801D0FFF7D4FFAFF3008045
:1012D0000020AFF30080FFF79FFE00F002F801202E
:1012E000704700F001B800000746384600F002F8E9
:1012F000FBE7000080B5AFF30080024A1100182020
:10130000ABBEFBE7260002007047FEE7FEE7FEE704
:10131000FEE770477047704700F000B802494A681E
:10132000087882184A607047000000200148804712
:1013300001480047B11100084D13000801000000EA
:10134000000000001000000000A24A04AFF300807B
:10135000AFF30080FFF7B4FFFFF7FEBFFFF7FEBF5C
:10136000FFF7FEBFFFF7FEBFFFF7FEBFFFF7FEBFB1
:10137000FFF7FEBFFFF7FEBFFFF7FEBFFFF7FEBFA1
:10138000FFF7FEBFFFF7FEBFFFF7FEBFFFF7FEBF91
:10139000FFF7FEBFFFF7FEBFFFF7FEBFFFF7FEBF81
:1013A000FFF7FEBFFFF7FEBFFFF7FEBFFFF7FEBF71
:1013B000FFF7FEBFFFF7FEBFFFF7FEBFFFF7FEBF61
:1013C000FFF7FEBFFFF7FEBFFFF7FEBFFFF7FEBF51
:1013D000FFF7FEBFFFF7FEBFFFF7FEBFFFF7FEBF41
:1013E000FFF7FEBFFFF7FEBFFFF7FEBFFFF7FEBF31
:1013F000FFF7FEBFFFF7FEBFFFF7FEBFFFF7FEBF21
:04140000FFF7FEBF35
:040000050800134D8F
:00000001FF
